No.     Time        Source                Destination           Protocol Info
3       0.005253    2002:ac13:103:218:250:56ff:fea4:4f82 2002:ac13:102:217:250:56ff:fea4:675e UDP      Source port: 33758  Destination port: 41068

Frame 3 (1514 bytes on wire, 1514 bytes captured)
    Arrival Time: Feb 19, 2015 01:18:03.356855000
    [Time delta from previous captured frame: 0.000882000 seconds]
    [Time delta from previous displayed frame: 0.000882000 seconds]
    [Time since reference or first frame: 0.005253000 seconds]
    Frame Number: 3
    Frame Length: 1514 bytes
    Capture Length: 1514 bytes
    [Frame is marked: False]
    [Protocols in frame: eth:ipv6:udp:data]
    [Coloring Rule Name: UDP]
    [Coloring Rule String: udp]
Ethernet II, Src: Vmware_a4:4f:82 (00:50:56:a4:4f:82), Dst: Vmware_a4:3a:33 (00:50:56:a4:3a:33)
    Destination: Vmware_a4:3a:33 (00:50:56:a4:3a:33)
        Address: Vmware_a4:3a:33 (00:50:56:a4:3a:33)
        .... ...0 .... .... .... .... = IG bit: Individual address (unicast)
        .... ..0. .... .... .... .... = LG bit: Globally unique address (factory default)
    Source: Vmware_a4:4f:82 (00:50:56:a4:4f:82)
        Address: Vmware_a4:4f:82 (00:50:56:a4:4f:82)
        .... ...0 .... .... .... .... = IG bit: Individual address (unicast)
        .... ..0. .... .... .... .... = LG bit: Globally unique address (factory default)
    Type: IPv6 (0x86dd)
Internet Protocol Version 6
    0110 .... = Version: 6
        [0110 .... = This field makes the filter "ip.version == 6" possible: 6]
    .... 0000 0000 .... .... .... .... .... = Traffic class: 0x00000000
    .... .... .... 0000 0000 0000 0000 0000 = Flowlabel: 0x00000000
    Payload length: 1460
    Next header: UDP (0x11)
    Hop limit: 2
    Source: 2002:ac13:103:218:250:56ff:fea4:4f82 (2002:ac13:103:218:250:56ff:fea4:4f82)
    Destination: 2002:ac13:102:217:250:56ff:fea4:675e (2002:ac13:102:217:250:56ff:fea4:675e)
User Datagram Protocol, Src Port: 33758 (33758), Dst Port: 41068 (41068)
    Source port: 33758 (33758)
    Destination port: 41068 (41068)
    Length: 1460
    Checksum: 0x545a [correct]
        [Good Checksum: True]
        [Bad Checksum: False]
Data (1452 bytes)
    Data: 020000004BAAE554F1710500C0C5F4B70000000006000075...

0000  00 50 56 a4 3a 33 00 50 56 a4 4f 82 86 dd 60 00   .PV.:3.PV.O...`.
0010  00 00 05 b4 11 02 20 02 ac 13 01 03 02 18 02 50   ...... ........P
0020  56 ff fe a4 4f 82 20 02 ac 13 01 02 02 17 02 50   V...O. ........P
0030  56 ff fe a4 67 5e 83 de a0 6c 05 b4 54 5a 02 00   V...g^...l..TZ..
0040  00 00 4b aa e5 54 f1 71 05 00 c0 c5 f4 b7 00 00   ..K..T.q........
0050  00 00 06 00 00 75 00 00 00 00 52 e5 74 64 f4 bf   .....u....R.td..
0060  f4 b7 b0 cb f3 b7 a4 ad f0 b7 08 91 98 bf 30 90   ..............0.
0070  98 bf a9 e5 f3 b7 f4 bf f4 b7 3c 93 98 bf 00 00   ..........<.....
0080  00 00 b0 90 98 bf 07 cc f3 b7 01 00 00 00 00 00   ................
0090  00 00 00 00 00 00 00 00 00 00 cb 03 f1 b7 00 00   ................
00a0  00 00 01 00 00 00 00 00 00 00 08 ef f1 b7 d0 15   ................
00b0  f3 b7 10 69 69 0d c0 f1 db b7 f4 90 98 bf 8b 9c   ...ii...........
00c0  f3 b7 8a 21 dd b7 c6 15 f3 b7 c0 fa f2 b7 6c 96   ...!..........l.
00d0  98 bf cc c9 dc b7 02 00 98 bf 49 f2 f3 b7 6b 85   ..........I...k.
00e0  04 08 00 00 00 00 f0 9c 04 08 00 00 00 00 01 00   ................
00f0  00 00 68 91 98 00 49 a0 f3 b7 10 00 00 00 f4 bf   ..h...I.........
0100  f4 b7 b0 cb f3 b7 6c 93 98 bf 9c 85 f4 b7 34 91   ......l.......4.
0110  98 bf 34 92 98 bf 87 f0 96 7c 04 00 00 00 bc 3c   ..4......|.....<
0120  dc b7 8c 3c dc b7 01 00 00 00 00 00 00 00 00 00   ...<............
0130  00 00 00 00 00 00 00 00 00 00 00 00 00 00 d1 08   ................
0140  00 00 c0 f1 db b7 18 fb f2 b7 b3 15 f3 b7 8c ca   ................
0150  dc b7 f8 12 f3 b7 01 00 00 00 f4 bf f4 b7 28 92   ..............(.
0160  98 bf 20 c8 f4 b7 44 92 98 bf 1a a2 f3 b7 f8 12   .. ...D.........
0170  f3 b7 28 92 98 bf c4 c7 f4 b7 02 00 00 00 c0 f1   ..(.............
0180  db b7 00 00 00 00 00 00 00 00 01 00 00 00 6c 93   ..............l.
0190  98 bf a6 ce f3 b7 ac fd f2 b7 a0 fd f2 b7 08 00   ................
01a0  00 00 b0 cb f3 b7 f0 ad 04 08 34 92 98 bf 5c 93   ..........4...\.
01b0  98 bf a0 c2 f4 b7 b3 15 f3 b7 87 f0 96 7c 00 00   .............|..
01c0  00 00 00 00 00 00 00 00 00 00 00 00 00 00 00 00   ................
01d0  00 00 00 00 00 00 00 00 00 00 00 00 00 00 da 15   ................
01e0  f3 b7 70 16 f3 b7 11 69 69 0d 84 92 98 bf 13 f9   ..p....ii.......
01f0  f3 b7 94 21 dd b7 d0 15 f3 b7 00 00 00 00 00 00   ...!............
0200  00 00 00 00 00 00 00 00 00 00 81 50 f4 b7 00 00   ...........P....
0210  00 00 00 00 00 00 00 00 00 00 f8 fa f2 b7 a0 01   ................
0220  00 00 00 10 00 00 cc c9 dc b7 1e b2 f3 b7 00 90   ................
0230  f0 b7 ff ff ff ff f4 bf f4 b7 f4 bf f4 b7 00 00   ................
0240  00 00 6c 93 98 bf 84 bb f3 b7 20 c8 f4 b7 c0 f1   ..l....... .....
0250  db b7 01 00 00 00 00 00 00 00 00 00 00 00 08 00   ................
0260  00 01 70 00 00 00 00 00 00 00 a0 c2 f4 b7 9c 52   ..p............R
0270  f4 b7 3c 87 f4 b7 3c 87 f4 b7 a0 c2 f4 b7 07 00   ..<...<.........
0280  00 00 00 00 00 00 d5 fe f3 00 07 00 00 00 10 00   ................
0290  00 00 88 17 f3 b7 00 00 00 00 f8 12 f3 b7 60 f4   ..............`.
02a0  e2 b7 00 00 00 00 10 c0 f4 b7 fc 15 f3 b7 00 00   ................
02b0  00 00 02 00 f4 b7 11 69 69 0d 00 00 00 00 f4 bf   .......ii.......
02c0  f4 b7 98 12 f3 b7 0f 00 00 00 e0 92 98 bf b5 51   ...............Q
02d0  f4 b7 08 00 00 00 88 00 00 00 f4 bf f4 b7 f8 92   ................
02e0  98 bf 9c 52 f4 b7 fc 15 f3 b7 21 fd de b7 6c 93   ...R......!...l.
02f0  98 bf 0f 00 00 00 91 bd e2 b7 18 16 f4 b7 11 00   ................
0300  00 00 08 00 00 00 68 14 32 b7 00 00 00 00 99 99   ......h.2.......
0310  99 19 05 00 00 00 55 b7 98 bf f5 d2 ee b7 00 00   ......U.........
0320  00 00 90 c1 f0 b7 00 00 00 00 40 00 00 00 08 00   ..........@.....
0330  00 00 d0 b0 04 08 00 00 00 00 9a 93 98 bf 98 93   ................
0340  98 bf 64 93 98 bf 80 f6 de b7 94 21 dd b7 10 69   ..d........!...i
0350  69 0d 20 f0 db b7 90 93 98 bf 8b 9c f3 b7 8a 21   i. ............!
0360  dd b7 8a 21 dd b7 50 00 00 00 88 93 98 bf cc c9   ...!..P.........
0370  dc b7 02 00 00 00 98 93 98 bf 00 00 00 00 f4 af   ................
0380  f0 b7 f4 bf f4 b7 d0 93 98 bf ec fd f2 b7 04 94   ................
0390  98 bf 49 a0 f3 b7 3c 00 00 00 f4 af f0 b7 3c 00   ..I...<.......<.
03a0  00 00 3c 00 00 00 9c 85 f4 b7 d0 93 98 bf d0 94   ..<.............
03b0  98 bf 87 f0 96 7c 04 00 00 00 bc 3c dc b7 8c 3c   .....|.....<...<
03c0  dc b7 00 00 00 00 00 00 00 00 00 00 00 00 00 00   ................
03d0  00 00 00 00 00 00 01 00 00 00 d1 08 00 00 20 f0   .............. .
03e0  db b7 18 fb f2 b7 4f 14 dd b7 8c ca dc b7 cc c9   ......O.........
03f0  dc b7 01 00 00 00 f4 bf f4 b7 c4 94 98 bf d0 fc   ................
0400  f2 b7 e0 94 98 bf 1a a2 f3 b7 cc c9 dc b7 c4 94   ................
0410  98 bf c4 c7 f4 b7 02 00 00 00 20 f0 db b7 01 00   .......... .....
0420  00 00 00 00 00 00 01 00 00 00 68 c6 f4 b7 0c 95   ..........h.....
0430  98 bf 0a 00 00 00 54 c9 f4 b7 d4 ca f0 b7 50 94   ......T.......P.
0440  98 bf 00 00 00 00 d0 94 98 bf 10 95 98 bf 18 fb   ................
0450  f2 b7 4f 14 dd b7 87 f0 96 7c 00 00 00 00 00 00   ..O......|......
0460  00 00 00 00 00 00 00 00 00 00 c9 86 04 08 10 69   ...............i
0470  69 0d 18 fe f2 b7 b0 94 98 bf 8b 9c f3 b7 8a 21   i..............!
0480  dd b7 bf 86 04 08 c0 fa f2 b7 b0 fa f2 b7 2c 87   ..............,.
0490  dc b7 02 00 98 bf 49 f2 f3 b7 6b 85 04 08 bc fa   ......I...k.....
04a0  f2 b7 f4 bf f4 b7 f0 94 98 bf ec fd f2 b7 24 95   ..............$.
04b0  98 bf 49 a0 f3 b7 00 05 ef b7 ec 94 98 bf 00 00   ..I.............
04c0  00 00 cc c9 dc b7 9c 85 f4 b7 f0 94 98 bf f0 95   ................
04d0  98 bf 74 12 ec a7 04 00 00 00 bc 3c dc b7 e4 2b   ..t........<...+
04e0  dc b7 d0 b0 04 08 d0 fc f2 b7 20 f0 db b7 00 00   .......... .....
04f0  00 00 00 00 00 00 01 00 00 00 a7 04 00 00 18 fe   ................
0500  f2 b7 18 fb f2 b7 43 86 04 08 8c ca dc b7 a8 84   ......C.........
0510  04 08 01 00 00 00 f4 bf f4 b7 e4 95 98 bf 20 c8   .............. .
0520  f4 b7 00 96 98 bf 1a a2 f3 b7 a8 84 04 08 e4 95   ................
0530  98 bf c4 c7 f4 b7 02 00 00 00 18 fe f2 b7 01 00   ................
0540  00 00 00 00 00 00 01 00 00 00 3c 96 98 bf 74 95   ..........<...t.
0550  98 bf 9d 90 e2 b7 90 95 98 bf a8 96 98 bf 00 00   ................
0560  00 00 01 00 00 00 f0 95 98 bf 30 96 98 bf 68 c6   ..........0...h.
0570  f4 b7 43 86 04 08 74 12 ec a7 00 00 00 00 00 00   ..C...t.........
0580  00 00 68 96 98 bf a8 96 98 bf 00 00 00 00 01 80   ..h.............
0590  ad fb e1 b3 e2 b7 a8 96 98 bf a8 96 98 bf a8 96   ................
05a0  98 bf ae 96 98 bf ff ff ff ff a8 96 98 bf ff ff   ................
05b0  ff ff d0 b0 04 08 80 c1 f0 b7 00 00 00 00 9c 04   ................
05c0  ef b7 00 00 00 00 00 00 00 00 00 00 00 00 00 00   ................
05d0  00 00 00 00 00 00 00 00 00 00 00 96 98 bf 00 97   ................
05e0  98 bf 2c 87 dc b7 18 fb f2 b7                     ..,.......
